{
  "contractName": "LiquidTokenKYC",
  "abi": [
    {
      "anonymous": false,
      "inputs": [
        {
          "indexed": true,
          "internalType": "address",
          "name": "previousOwner",
          "type": "address"
        },
        {
          "indexed": true,
          "internalType": "address",
          "name": "newOwner",
          "type": "address"
        }
      ],
      "name": "OwnershipTransferred",
      "type": "event"
    },
    {
      "inputs": [],
      "name": "owner",
      "outputs": [
        {
          "internalType": "address",
          "name": "",
          "type": "address"
        }
      ],
      "stateMutability": "view",
      "type": "function"
    },
    {
      "inputs": [],
      "name": "renounceOwnership",
      "outputs": [],
      "stateMutability": "nonpayable",
      "type": "function"
    },
    {
      "inputs": [
        {
          "internalType": "address",
          "name": "newOwner",
          "type": "address"
        }
      ],
      "name": "transferOwnership",
      "outputs": [],
      "stateMutability": "nonpayable",
      "type": "function"
    },
    {
      "inputs": [
        {
          "internalType": "address",
          "name": "_addr",
          "type": "address"
        }
      ],
      "name": "approveKYC",
      "outputs": [],
      "stateMutability": "nonpayable",
      "type": "function"
    },
    {
      "inputs": [
        {
          "internalType": "address",
          "name": "_addr",
          "type": "address"
        }
      ],
      "name": "revokeKYC",
      "outputs": [],
      "stateMutability": "nonpayable",
      "type": "function"
    },
    {
      "inputs": [
        {
          "internalType": "address",
          "name": "_addr",
          "type": "address"
        }
      ],
      "name": "getKYCStatus",
      "outputs": [
        {
          "internalType": "bool",
          "name": "",
          "type": "bool"
        }
      ],
      "stateMutability": "view",
      "type": "function"
    }
  ],
  "bytecode": "0x608060405234801561001057600080fd5b5061002d61002261003260201b60201c565b61003a60201b60201c565b6100fe565b600033905090565b60008060009054906101000a900473ffffffffffffffffffffffffffffffffffffffff169050816000806101000a81548173ffffffffffffffffffffffffffffffffffffffff021916908373ffffffffffffffffffffffffffffffffffffffff1602179055508173ffffffffffffffffffffffffffffffffffffffff168173ffffffffffffffffffffffffffffffffffffffff167f8be0079c531659141344cd1fd0a4f28419497f9722a3daafe3b4186f6b6457e060405160405180910390a35050565b6107be8061010d6000396000f3fe608060405234801561001057600080fd5b50600436106100615760003560e01c80620c8df0146100665780630e27324d1461009657806339ba645b146100b2578063715018a6146100ce5780638da5cb5b146100d8578063f2fde38b146100f6575b600080fd5b610080600480360381019061007b91906105ec565b610112565b60405161008d9190610634565b60405180910390f35b6100b060048036038101906100ab91906105ec565b610168565b005b6100cc60048036038101906100c791906105ec565b61023e565b005b6100d6610315565b005b6100e061039d565b6040516100ed919061065e565b60405180910390f35b610110600480360381019061010b91906105ec565b6103c6565b005b6000600160008373ffffffffffffffffffffffffffffffffffffffff1673ffffffffffffffffffffffffffffffffffffffff16815260200190815260200160002060009054906101000a900460ff169050919050565b6101706104bd565b73ffffffffffffffffffffffffffffffffffffffff1661018e61039d565b73ffffffffffffffffffffffffffffffffffffffff16146101e4576040517f08c379a00000000000000000000000000000000000000000000000000000000081526004016101db906106d6565b60405180910390fd5b60018060008373ffffffffffffffffffffffffffffffffffffffff1673ffffffffffffffffffffffffffffffffffffffff16815260200190815260200160002060006101000a81548160ff02191690831515021790555050565b6102466104bd565b73ffffffffffffffffffffffffffffffffffffffff1661026461039d565b73ffffffffffffffffffffffffffffffffffffffff16146102ba576040517f08c379a00000000000000000000000000000000000000000000000000000000081526004016102b1906106d6565b60405180910390fd5b6000600160008373ffffffffffffffffffffffffffffffffffffffff1673ffffffffffffffffffffffffffffffffffffffff16815260200190815260200160002060006101000a81548160ff02191690831515021790555050565b61031d6104bd565b73ffffffffffffffffffffffffffffffffffffffff1661033b61039d565b73ffffffffffffffffffffffffffffffffffffffff1614610391576040517f08c379a0000000000000000000000000000000000000000000000000000000008152600401610388906106d6565b60405180910390fd5b61039b60006104c5565b565b60008060009054906101000a900473ffffffffffffffffffffffffffffffffffffffff16905090565b6103ce6104bd565b73ffffffffffffffffffffffffffffffffffffffff166103ec61039d565b73ffffffffffffffffffffffffffffffffffffffff1614610442576040517f08c379a0000000000000000000000000000000000000000000000000000000008152600401610439906106d6565b60405180910390fd5b600073ffffffffffffffffffffffffffffffffffffffff168173ffffffffffffffffffffffffffffffffffffffff16036104b1576040517f08c379a00000000000000000000000000000000000000000000000000000000081526004016104a890610768565b60405180910390fd5b6104ba816104c5565b50565b600033905090565b60008060009054906101000a900473ffffffffffffffffffffffffffffffffffffffff169050816000806101000a81548173ffffffffffffffffffffffffffffffffffffffff021916908373ffffffffffffffffffffffffffffffffffffffff1602179055508173ffffffffffffffffffffffffffffffffffffffff168173ffffffffffffffffffffffffffffffffffffffff167f8be0079c531659141344cd1fd0a4f28419497f9722a3daafe3b4186f6b6457e060405160405180910390a35050565b600080fd5b600073ffffffffffffffffffffffffffffffffffffffff82169050919050565b60006105b98261058e565b9050919050565b6105c9816105ae565b81146105d457600080fd5b50565b6000813590506105e6816105c0565b92915050565b60006020828403121561060257610601610589565b5b6000610610848285016105d7565b91505092915050565b60008115159050919050565b61062e81610619565b82525050565b60006020820190506106496000830184610625565b92915050565b610658816105ae565b82525050565b6000602082019050610673600083018461064f565b92915050565b600082825260208201905092915050565b7f4f776e61626c653a2063616c6c6572206973206e6f7420746865206f776e6572600082015250565b60006106c0602083610679565b91506106cb8261068a565b602082019050919050565b600060208201905081810360008301526106ef816106b3565b9050919050565b7f4f776e61626c653a206e6577206f776e657220697320746865207a65726f206160008201527f6464726573730000000000000000000000000000000000000000000000000000602082015250565b6000610752602683610679565b915061075d826106f6565b604082019050919050565b6000602082019050818103600083015261078181610745565b905091905056fea2646970667358221220e3acbc08bb3f84631888f59c8591670b12f53664646b54d7d1c3ae4ffed1a26e64736f6c634300080d0033",
  "immutableReferences": {},
  "source": "// SPDX-License-Identifier: MIT\r\n\r\npragma solidity ^0.8.0;\r\n\r\nimport \"@openzeppelin/contracts/access/Ownable.sol\";\r\n\r\ncontract LiquidTokenKYC is Ownable {\r\n\r\n    mapping (address => bool) allowed;\r\n\r\n    function approveKYC (address _addr) public onlyOwner {\r\n        allowed[_addr] = true;\r\n    }\r\n\r\n    function revokeKYC (address _addr) public onlyOwner {\r\n        allowed[_addr] = false;\r\n    }\r\n\r\n    function getKYCStatus (address _addr) public view returns (bool) {\r\n        return allowed[_addr];\r\n    }\r\n\r\n}",
  "sourcePath": "E:\\Git\\Asset-Tokenization\\contracts\\liquidtokenkyc.sol",
  "compiler": {
    "name": "solc",
    "version": "0.8.13+commit.abaa5c0e.Emscripten.clang"
  },
  "schemaVersion": "3.4.7",
  "updatedAt": "2022-05-14T17:14:09.075Z",
  "devdoc": {
    "kind": "dev",
    "methods": {
      "owner()": {
        "details": "Returns the address of the current owner."
      },
      "renounceOwnership()": {
        "details": "Leaves the contract without owner. It will not be possible to call `onlyOwner` functions anymore. Can only be called by the current owner. NOTE: Renouncing ownership will leave the contract without an owner, thereby removing any functionality that is only available to the owner."
      },
      "transferOwnership(address)": {
        "details": "Transfers ownership of the contract to a new account (`newOwner`). Can only be called by the current owner."
      }
    },
    "version": 1
  },
  "userdoc": {
    "kind": "user",
    "methods": {},
    "version": 1
  }
}