{
  "contractName": "LiquidTokenKYC",
  "abi": [
    {
      "anonymous": false,
      "inputs": [
        {
          "indexed": true,
          "internalType": "address",
          "name": "previousOwner",
          "type": "address"
        },
        {
          "indexed": true,
          "internalType": "address",
          "name": "newOwner",
          "type": "address"
        }
      ],
      "name": "OwnershipTransferred",
      "type": "event"
    },
    {
      "inputs": [],
      "name": "owner",
      "outputs": [
        {
          "internalType": "address",
          "name": "",
          "type": "address"
        }
      ],
      "stateMutability": "view",
      "type": "function",
      "constant": true
    },
    {
      "inputs": [],
      "name": "renounceOwnership",
      "outputs": [],
      "stateMutability": "nonpayable",
      "type": "function"
    },
    {
      "inputs": [
        {
          "internalType": "address",
          "name": "newOwner",
          "type": "address"
        }
      ],
      "name": "transferOwnership",
      "outputs": [],
      "stateMutability": "nonpayable",
      "type": "function"
    },
    {
      "inputs": [
        {
          "internalType": "address",
          "name": "_addr",
          "type": "address"
        }
      ],
      "name": "approveKYC",
      "outputs": [],
      "stateMutability": "nonpayable",
      "type": "function"
    },
    {
      "inputs": [
        {
          "internalType": "address",
          "name": "_addr",
          "type": "address"
        }
      ],
      "name": "revokeKYC",
      "outputs": [],
      "stateMutability": "nonpayable",
      "type": "function"
    },
    {
      "inputs": [
        {
          "internalType": "address",
          "name": "_addr",
          "type": "address"
        }
      ],
      "name": "getKYCStatus",
      "outputs": [
        {
          "internalType": "bool",
          "name": "",
          "type": "bool"
        }
      ],
      "stateMutability": "view",
      "type": "function",
      "constant": true
    }
  ],
  "bytecode": "0x608060405234801561001057600080fd5b5061002d61002261003260201b60201c565b61003a60201b60201c565b6100fe565b600033905090565b60008060009054906101000a900473ffffffffffffffffffffffffffffffffffffffff169050816000806101000a81548173ffffffffffffffffffffffffffffffffffffffff021916908373ffffffffffffffffffffffffffffffffffffffff1602179055508173ffffffffffffffffffffffffffffffffffffffff168173ffffffffffffffffffffffffffffffffffffffff167f8be0079c531659141344cd1fd0a4f28419497f9722a3daafe3b4186f6b6457e060405160405180910390a35050565b6109ff8061010d6000396000f3fe608060405234801561001057600080fd5b50600436106100615760003560e01c80620c8df0146100665780630e27324d1461009657806339ba645b146100b2578063715018a6146100ce5780638da5cb5b146100d8578063f2fde38b146100f6575b600080fd5b610080600480360381019061007b9190610709565b610112565b60405161008d9190610751565b60405180910390f35b6100b060048036038101906100ab9190610709565b610168565b005b6100cc60048036038101906100c79190610709565b6102cd565b005b6100d6610432565b005b6100e06104ba565b6040516100ed919061077b565b60405180910390f35b610110600480360381019061010b9190610709565b6104e3565b005b6000600160008373ffffffffffffffffffffffffffffffffffffffff1673ffffffffffffffffffffffffffffffffffffffff16815260200190815260200160002060009054906101000a900460ff169050919050565b6101706105da565b73ffffffffffffffffffffffffffffffffffffffff1661018e6104ba565b73ffffffffffffffffffffffffffffffffffffffff16146101e4576040517f08c379a00000000000000000000000000000000000000000000000000000000081526004016101db906107f3565b60405180910390fd5b80600160008273ffffffffffffffffffffffffffffffffffffffff1673ffffffffffffffffffffffffffffffffffffffff16815260200190815260200160002060009054906101000a900460ff1615610272576040517f08c379a000000000000000000000000000000000000000000000000000000000815260040161026990610885565b60405180910390fd5b60018060008473ffffffffffffffffffffffffffffffffffffffff1673ffffffffffffffffffffffffffffffffffffffff16815260200190815260200160002060006101000a81548160ff0219169083151502179055505050565b6102d56105da565b73ffffffffffffffffffffffffffffffffffffffff166102f36104ba565b73ffffffffffffffffffffffffffffffffffffffff1614610349576040517f08c379a0000000000000000000000000000000000000000000000000000000008152600401610340906107f3565b60405180910390fd5b80600160008273ffffffffffffffffffffffffffffffffffffffff1673ffffffffffffffffffffffffffffffffffffffff16815260200190815260200160002060009054906101000a900460ff166103d6576040517f08c379a00000000000000000000000000000000000000000000000000000000081526004016103cd90610917565b60405180910390fd5b6000600160008473ffffffffffffffffffffffffffffffffffffffff1673ffffffffffffffffffffffffffffffffffffffff16815260200190815260200160002060006101000a81548160ff0219169083151502179055505050565b61043a6105da565b73ffffffffffffffffffffffffffffffffffffffff166104586104ba565b73ffffffffffffffffffffffffffffffffffffffff16146104ae576040517f08c379a00000000000000000000000000000000000000000000000000000000081526004016104a5906107f3565b60405180910390fd5b6104b860006105e2565b565b60008060009054906101000a900473ffffffffffffffffffffffffffffffffffffffff16905090565b6104eb6105da565b73ffffffffffffffffffffffffffffffffffffffff166105096104ba565b73ffffffffffffffffffffffffffffffffffffffff161461055f576040517f08c379a0000000000000000000000000000000000000000000000000000000008152600401610556906107f3565b60405180910390fd5b600073ffffffffffffffffffffffffffffffffffffffff168173ffffffffffffffffffffffffffffffffffffffff16036105ce576040517f08c379a00000000000000000000000000000000000000000000000000000000081526004016105c5906109a9565b60405180910390fd5b6105d7816105e2565b50565b600033905090565b60008060009054906101000a900473ffffffffffffffffffffffffffffffffffffffff169050816000806101000a81548173ffffffffffffffffffffffffffffffffffffffff021916908373ffffffffffffffffffffffffffffffffffffffff1602179055508173ffffffffffffffffffffffffffffffffffffffff168173ffffffffffffffffffffffffffffffffffffffff167f8be0079c531659141344cd1fd0a4f28419497f9722a3daafe3b4186f6b6457e060405160405180910390a35050565b600080fd5b600073ffffffffffffffffffffffffffffffffffffffff82169050919050565b60006106d6826106ab565b9050919050565b6106e6816106cb565b81146106f157600080fd5b50565b600081359050610703816106dd565b92915050565b60006020828403121561071f5761071e6106a6565b5b600061072d848285016106f4565b91505092915050565b60008115159050919050565b61074b81610736565b82525050565b60006020820190506107666000830184610742565b92915050565b610775816106cb565b82525050565b6000602082019050610790600083018461076c565b92915050565b600082825260208201905092915050565b7f4f776e61626c653a2063616c6c6572206973206e6f7420746865206f776e6572600082015250565b60006107dd602083610796565b91506107e8826107a7565b602082019050919050565b6000602082019050818103600083015261080c816107d0565b9050919050565b7f4c6971756964546f6b656e4b59433a205468697320616464726573732069732060008201527f616c72656164792077686974656c69737465642e000000000000000000000000602082015250565b600061086f603483610796565b915061087a82610813565b604082019050919050565b6000602082019050818103600083015261089e81610862565b9050919050565b7f4c6971756964546f6b656e4b59433a205468697320616464726573732069732060008201527f6e6f742077686974656c69737465642e00000000000000000000000000000000602082015250565b6000610901603083610796565b915061090c826108a5565b604082019050919050565b60006020820190508181036000830152610930816108f4565b9050919050565b7f4f776e61626c653a206e6577206f776e657220697320746865207a65726f206160008201527f6464726573730000000000000000000000000000000000000000000000000000602082015250565b6000610993602683610796565b915061099e82610937565b604082019050919050565b600060208201905081810360008301526109c281610986565b905091905056fea264697066735822122079d2d2e879a48dd8e7da25f01a3fa2252108534a98947bcf3e93ae49e6377c6a64736f6c634300080e0033",
  "immutableReferences": {},
  "source": "// SPDX-License-Identifier: MIT\r\n\r\npragma solidity ^0.8.0;\r\n\r\nimport \"@openzeppelin/contracts/access/Ownable.sol\";\r\n\r\ncontract LiquidTokenKYC is Ownable {\r\n\r\n    mapping (address => bool) allowed;\r\n\r\n    modifier notWhitelisted (address _addr) {\r\n        require (!allowed[_addr], \"LiquidTokenKYC: This address is already whitelisted.\");\r\n        _;\r\n    }\r\n\r\n    modifier whitelisted (address _addr) {\r\n        require (allowed[_addr], \"LiquidTokenKYC: This address is not whitelisted.\");\r\n        _;\r\n    }\r\n\r\n    function approveKYC (address _addr) public onlyOwner notWhitelisted (_addr) {\r\n        allowed[_addr] = true;\r\n    }\r\n\r\n    function revokeKYC (address _addr) public onlyOwner whitelisted (_addr) {\r\n        allowed[_addr] = false;\r\n    }\r\n\r\n    function getKYCStatus (address _addr) public view returns (bool) {\r\n        return allowed[_addr];\r\n    }\r\n\r\n}",
  "sourcePath": "E:\\Git\\Asset-Tokenizer\\contracts\\liquidtokenkyc.sol",
  "compiler": {
    "name": "solc",
    "version": "0.8.14+commit.80d49f37.Emscripten.clang"
  },
  "schemaVersion": "3.4.7",
  "updatedAt": "2022-05-17T18:42:31.729Z",
  "networkType": "ethereum",
  "devdoc": {
    "kind": "dev",
    "methods": {
      "owner()": {
        "details": "Returns the address of the current owner."
      },
      "renounceOwnership()": {
        "details": "Leaves the contract without owner. It will not be possible to call `onlyOwner` functions anymore. Can only be called by the current owner. NOTE: Renouncing ownership will leave the contract without an owner, thereby removing any functionality that is only available to the owner."
      },
      "transferOwnership(address)": {
        "details": "Transfers ownership of the contract to a new account (`newOwner`). Can only be called by the current owner."
      }
    },
    "version": 1
  },
  "userdoc": {
    "kind": "user",
    "methods": {},
    "version": 1
  }
}