{
  "contractName": "LiquidTokenSale",
  "abi": [
    {
      "inputs": [
        {
          "internalType": "uint256",
          "name": "_rate",
          "type": "uint256"
        },
        {
          "internalType": "address payable",
          "name": "_wallet",
          "type": "address"
        },
        {
          "internalType": "contract IERC20",
          "name": "_token",
          "type": "address"
        }
      ],
      "stateMutability": "nonpayable",
      "type": "constructor"
    },
    {
      "anonymous": false,
      "inputs": [
        {
          "indexed": true,
          "internalType": "address",
          "name": "purchaser",
          "type": "address"
        },
        {
          "indexed": true,
          "internalType": "address",
          "name": "beneficiary",
          "type": "address"
        },
        {
          "indexed": false,
          "internalType": "uint256",
          "name": "value",
          "type": "uint256"
        },
        {
          "indexed": false,
          "internalType": "uint256",
          "name": "amount",
          "type": "uint256"
        }
      ],
      "name": "TokensPurchased",
      "type": "event"
    },
    {
      "inputs": [
        {
          "internalType": "address",
          "name": "beneficiary",
          "type": "address"
        }
      ],
      "name": "buyTokens",
      "outputs": [],
      "stateMutability": "payable",
      "type": "function",
      "payable": true
    },
    {
      "inputs": [],
      "name": "rate",
      "outputs": [
        {
          "internalType": "uint256",
          "name": "",
          "type": "uint256"
        }
      ],
      "stateMutability": "view",
      "type": "function",
      "constant": true
    },
    {
      "inputs": [],
      "name": "token",
      "outputs": [
        {
          "internalType": "contract IERC20",
          "name": "",
          "type": "address"
        }
      ],
      "stateMutability": "view",
      "type": "function",
      "constant": true
    },
    {
      "inputs": [],
      "name": "wallet",
      "outputs": [
        {
          "internalType": "address payable",
          "name": "",
          "type": "address"
        }
      ],
      "stateMutability": "view",
      "type": "function",
      "constant": true
    },
    {
      "inputs": [],
      "name": "weiRaised",
      "outputs": [
        {
          "internalType": "uint256",
          "name": "",
          "type": "uint256"
        }
      ],
      "stateMutability": "view",
      "type": "function",
      "constant": true
    },
    {
      "stateMutability": "payable",
      "type": "receive",
      "payable": true
    }
  ],
  "bytecode": "0x60806040523480156200001157600080fd5b5060405162001422380380620014228339818101604052810190620000379190620002ff565b82828260016000819055506000831162000088576040517f08c379a00000000000000000000000000000000000000000000000000000000081526004016200007f90620003bc565b60405180910390fd5b600073ffffffffffffffffffffffffffffffffffffffff168273ffffffffffffffffffffffffffffffffffffffff1603620000fa576040517f08c379a0000000000000000000000000000000000000000000000000000000008152600401620000f19062000454565b60405180910390fd5b600073ffffffffffffffffffffffffffffffffffffffff168173ffffffffffffffffffffffffffffffffffffffff16036200016c576040517f08c379a00000000000000000000000000000000000000000000000000000000081526004016200016390620004ec565b60405180910390fd5b8260038190555081600260006101000a81548173ffffffffffffffffffffffffffffffffffffffff021916908373ffffffffffffffffffffffffffffffffffffffff16021790555080600160006101000a81548173ffffffffffffffffffffffffffffffffffffffff021916908373ffffffffffffffffffffffffffffffffffffffff1602179055505050505050506200050e565b600080fd5b6000819050919050565b6200021b8162000206565b81146200022757600080fd5b50565b6000815190506200023b8162000210565b92915050565b600073ffffffffffffffffffffffffffffffffffffffff82169050919050565b60006200026e8262000241565b9050919050565b620002808162000261565b81146200028c57600080fd5b50565b600081519050620002a08162000275565b92915050565b6000620002b38262000241565b9050919050565b6000620002c782620002a6565b9050919050565b620002d981620002ba565b8114620002e557600080fd5b50565b600081519050620002f981620002ce565b92915050565b6000806000606084860312156200031b576200031a62000201565b5b60006200032b868287016200022a565b93505060206200033e868287016200028f565b92505060406200035186828701620002e8565b9150509250925092565b600082825260208201905092915050565b7f43726f776473616c653a20726174652069732030000000000000000000000000600082015250565b6000620003a46014836200035b565b9150620003b1826200036c565b602082019050919050565b60006020820190508181036000830152620003d78162000395565b9050919050565b7f43726f776473616c653a2077616c6c657420697320746865207a65726f20616460008201527f6472657373000000000000000000000000000000000000000000000000000000602082015250565b60006200043c6025836200035b565b91506200044982620003de565b604082019050919050565b600060208201905081810360008301526200046f816200042d565b9050919050565b7f43726f776473616c653a20746f6b656e20697320746865207a65726f2061646460008201527f7265737300000000000000000000000000000000000000000000000000000000602082015250565b6000620004d46024836200035b565b9150620004e18262000476565b604082019050919050565b600060208201905081810360008301526200050781620004c5565b9050919050565b610f04806200051e6000396000f3fe60806040526004361061004e5760003560e01c80632c4e722e1461006a5780634042b66f14610095578063521eb273146100c0578063ec8ac4d8146100eb578063fc0c546a1461010757610065565b366100655761006361005e610132565b61013a565b005b600080fd5b34801561007657600080fd5b5061007f61025f565b60405161008c91906107b5565b60405180910390f35b3480156100a157600080fd5b506100aa610269565b6040516100b791906107b5565b60405180910390f35b3480156100cc57600080fd5b506100d5610273565b6040516100e29190610811565b60405180910390f35b6101056004803603810190610100919061086f565b61013a565b005b34801561011357600080fd5b5061011c61029d565b60405161012991906108fb565b60405180910390f35b600033905090565b60026000540361017f576040517f08c379a000000000000000000000000000000000000000000000000000000000815260040161017690610973565b60405180910390fd5b6002600081905550600034905061019682826102c7565b60006101a18261037d565b90506101b88260045461039b90919063ffffffff16565b6004819055506101c883826103b1565b8273ffffffffffffffffffffffffffffffffffffffff166101e7610132565b73ffffffffffffffffffffffffffffffffffffffff167f6faf93231a456e552dbc9961f58d9713ee4f2e69d15f1975b050ef0911053a7b848460405161022e929190610993565b60405180910390a361024083836103bf565b6102486103c3565b610252838361042e565b5050600160008190555050565b6000600354905090565b6000600454905090565b6000600260009054906101000a900473ffffffffffffffffffffffffffffffffffffffff16905090565b6000600160009054906101000a900473ffffffffffffffffffffffffffffffffffffffff16905090565b600073ffffffffffffffffffffffffffffffffffffffff168273ffffffffffffffffffffffffffffffffffffffff1603610336576040517f08c379a000000000000000000000000000000000000000000000000000000000815260040161032d90610a2e565b60405180910390fd5b60008103610379576040517f08c379a000000000000000000000000000000000000000000000000000000000815260040161037090610a9a565b60405180910390fd5b5050565b60006103946003548361043290919063ffffffff16565b9050919050565b600081836103a99190610ae9565b905092915050565b6103bb8282610448565b5050565b5050565b600260009054906101000a900473ffffffffffffffffffffffffffffffffffffffff1673ffffffffffffffffffffffffffffffffffffffff166108fc349081150290604051600060405180830381858888f1935050505015801561042b573d6000803e3d6000fd5b50565b5050565b600081836104409190610b3f565b905092915050565b6104958282600160009054906101000a900473ffffffffffffffffffffffffffffffffffffffff1673ffffffffffffffffffffffffffffffffffffffff166104999092919063ffffffff16565b5050565b61051a8363a9059cbb60e01b84846040516024016104b8929190610ba8565b604051602081830303815290604052907bffffffffffffffffffffffffffffffffffffffffffffffffffffffff19166020820180517bffffffffffffffffffffffffffffffffffffffffffffffffffffffff838183161783525050505061051f565b505050565b6000610581826040518060400160405280602081526020017f5361666545524332303a206c6f772d6c6576656c2063616c6c206661696c65648152508573ffffffffffffffffffffffffffffffffffffffff166105e69092919063ffffffff16565b90506000815111156105e157808060200190518101906105a19190610c09565b6105e0576040517f08c379a00000000000000000000000000000000000000000000000000000000081526004016105d790610ca8565b60405180910390fd5b5b505050565b60606105f584846000856105fe565b90509392505050565b606082471015610643576040517f08c379a000000000000000000000000000000000000000000000000000000000815260040161063a90610d3a565b60405180910390fd5b61064c85610712565b61068b576040517f08c379a000000000000000000000000000000000000000000000000000000000815260040161068290610da6565b60405180910390fd5b6000808673ffffffffffffffffffffffffffffffffffffffff1685876040516106b49190610e40565b60006040518083038185875af1925050503d80600081146106f1576040519150601f19603f3d011682016040523d82523d6000602084013e6106f6565b606091505b5091509150610706828286610735565b92505050949350505050565b6000808273ffffffffffffffffffffffffffffffffffffffff163b119050919050565b6060831561074557829050610795565b6000835111156107585782518084602001fd5b816040517f08c379a000000000000000000000000000000000000000000000000000000000815260040161078c9190610eac565b60405180910390fd5b9392505050565b6000819050919050565b6107af8161079c565b82525050565b60006020820190506107ca60008301846107a6565b92915050565b600073ffffffffffffffffffffffffffffffffffffffff82169050919050565b60006107fb826107d0565b9050919050565b61080b816107f0565b82525050565b60006020820190506108266000830184610802565b92915050565b600080fd5b600061083c826107d0565b9050919050565b61084c81610831565b811461085757600080fd5b50565b60008135905061086981610843565b92915050565b6000602082840312156108855761088461082c565b5b60006108938482850161085a565b91505092915050565b6000819050919050565b60006108c16108bc6108b7846107d0565b61089c565b6107d0565b9050919050565b60006108d3826108a6565b9050919050565b60006108e5826108c8565b9050919050565b6108f5816108da565b82525050565b600060208201905061091060008301846108ec565b92915050565b600082825260208201905092915050565b7f5265656e7472616e637947756172643a207265656e7472616e742063616c6c00600082015250565b600061095d601f83610916565b915061096882610927565b602082019050919050565b6000602082019050818103600083015261098c81610950565b9050919050565b60006040820190506109a860008301856107a6565b6109b560208301846107a6565b9392505050565b7f43726f776473616c653a2062656e656669636961727920697320746865207a6560008201527f726f206164647265737300000000000000000000000000000000000000000000602082015250565b6000610a18602a83610916565b9150610a23826109bc565b604082019050919050565b60006020820190508181036000830152610a4781610a0b565b9050919050565b7f43726f776473616c653a20776569416d6f756e74206973203000000000000000600082015250565b6000610a84601983610916565b9150610a8f82610a4e565b602082019050919050565b60006020820190508181036000830152610ab381610a77565b9050919050565b7f4e487b7100000000000000000000000000000000000000000000000000000000600052601160045260246000fd5b6000610af48261079c565b9150610aff8361079c565b9250827fffffffffffffffffffffffffffffffffffffffffffffffffffffffffffffffff03821115610b3457610b33610aba565b5b828201905092915050565b6000610b4a8261079c565b9150610b558361079c565b9250817fffffffffffffffffffffffffffffffffffffffffffffffffffffffffffffffff0483118215151615610b8e57610b8d610aba565b5b828202905092915050565b610ba281610831565b82525050565b6000604082019050610bbd6000830185610b99565b610bca60208301846107a6565b9392505050565b60008115159050919050565b610be681610bd1565b8114610bf157600080fd5b50565b600081519050610c0381610bdd565b92915050565b600060208284031215610c1f57610c1e61082c565b5b6000610c2d84828501610bf4565b91505092915050565b7f5361666545524332303a204552433230206f7065726174696f6e20646964206e60008201527f6f74207375636365656400000000000000000000000000000000000000000000602082015250565b6000610c92602a83610916565b9150610c9d82610c36565b604082019050919050565b60006020820190508181036000830152610cc181610c85565b9050919050565b7f416464726573733a20696e73756666696369656e742062616c616e636520666f60008201527f722063616c6c0000000000000000000000000000000000000000000000000000602082015250565b6000610d24602683610916565b9150610d2f82610cc8565b604082019050919050565b60006020820190508181036000830152610d5381610d17565b9050919050565b7f416464726573733a2063616c6c20746f206e6f6e2d636f6e7472616374000000600082015250565b6000610d90601d83610916565b9150610d9b82610d5a565b602082019050919050565b60006020820190508181036000830152610dbf81610d83565b9050919050565b600081519050919050565b600081905092915050565b60005b83811015610dfa578082015181840152602081019050610ddf565b83811115610e09576000848401525b50505050565b6000610e1a82610dc6565b610e248185610dd1565b9350610e34818560208601610ddc565b80840191505092915050565b6000610e4c8284610e0f565b915081905092915050565b600081519050919050565b6000601f19601f8301169050919050565b6000610e7e82610e57565b610e888185610916565b9350610e98818560208601610ddc565b610ea181610e62565b840191505092915050565b60006020820190508181036000830152610ec68184610e73565b90509291505056fea26469706673582212202fc16612cb8bd27d25758062ee4c19cbd31e76e6a754e171249278db920798e164736f6c634300080d0033",
  "immutableReferences": {},
  "source": "// SPDX-License-Identifier: MIT\r\n\r\npragma solidity ^0.8.0;\r\n\r\nimport \"./crowdsale.sol\";\r\n\r\ncontract LiquidTokenSale is Crowdsale {\r\n\r\n    constructor (uint256 _rate, address payable _wallet, IERC20 _token) \r\n        Crowdsale (_rate, _wallet, _token)\r\n    {\r\n\r\n    }\r\n\r\n}\r\n",
  "sourcePath": "E:\\Git\\Asset-Tokenization\\contracts\\liquidtokensale.sol",
  "compiler": {
    "name": "solc",
    "version": "0.8.13+commit.abaa5c0e.Emscripten.clang"
  },
  "schemaVersion": "3.4.7",
  "updatedAt": "2022-05-13T09:58:42.512Z",
  "networkType": "ethereum",
  "devdoc": {
    "kind": "dev",
    "methods": {
      "buyTokens(address)": {
        "details": "low level token purchase ***DO NOT OVERRIDE*** This function has a non-reentrancy guard, so it shouldn't be called by another `nonReentrant` function.",
        "params": {
          "beneficiary": "Recipient of the token purchase"
        }
      },
      "rate()": {
        "returns": {
          "_0": "the number of token units a buyer gets per wei."
        }
      },
      "token()": {
        "returns": {
          "_0": "the token being sold."
        }
      },
      "wallet()": {
        "returns": {
          "_0": "the address where funds are collected."
        }
      },
      "weiRaised()": {
        "returns": {
          "_0": "the amount of wei raised."
        }
      }
    },
    "version": 1
  },
  "userdoc": {
    "events": {
      "TokensPurchased(address,address,uint256,uint256)": {
        "notice": "Event for token purchase logging"
      }
    },
    "kind": "user",
    "methods": {},
    "version": 1
  }
}